:020000040000fa
:100000000200de021003000000000002100b0000de
:10001000000000021013000000000002101b00008e
:10002000000000021023000000000002102b00005e
:10003000000000021033000000000002103b00002e
:10004000000000021043000000000002104b0000fe
:10005000000000021053000000000002105b0000ce
:10006000000000021063000000000002106b00009e
:10007000000000021073000000000002107b00006e
:10008000000000021083000000000002108b00003e
:10009000000000020ada1200f0b900030200d8e4fe
:1000a000900002781c79028002f0a3d8fcd9fa9063
:1000b000011daa82ab839000f6780f79018015e4c8
:1000c00093a3ac82ad838a828b83f0a3aa82ab8395
:1000d0008c828d83d8e9d9e7120501120af975d00f
:1000e0000075813f75188075931e5392fe0200962d
:1000f00079015392fe22001000100000f800ffff6b
:1001000000100000e4936670130874019366700c8d
:1001100008740293667005087403936622c3e09620
:1001200008a3e09608a3e09608a3e09622c3e49310
:100130009608740193960874029396087403939634
:10014000226016080808c6c313c618c613c618c608
:1001500013c618c613c6d5e0ea22e026f008a3e0cd
:1001600036f008a3e036f008a3e036f022e056f6b9
:1001700008a3e056f608a3e056f608a3e056f622d8
:10018000e0f608a3e0f608a3e0f608a3e0f622c92b
:10019000c0e0e7f20809e7f20809e7f20809e7f228
:1001a000d0e0f922e0faa3e0fba3e0fca3e0fd220b
:1001b000eaf0a3ebf0a3ecf0a3edf022cac0e0e676
:1001c000f30908dafad0e0fa22e4735392fed083fe
:1001d000d0822518f8c518c39824fbcef208e52074
:1001e000f208e9c0e07908e709f208defad0e0f9a0
:1001f000eff208d0e0fed0e0f208eef208e473a8d7
:1002000018e2fe08e208f520e9c0e07908e208f704
:1002100009dffae208ffd0e0f9e208c0e0e208c036
:10022000e088185392fe22e584f208e585f222e286
:1002300008f584e2f5852274028000c9c0e0e51863
:10024000c399f518c91201bcd0e0f922d083d0823d
:10025000ecc0e0edc0e0eec0e0efc0e0e493a3fc52
:10026000e493a3fde493a3fee493a3ffef4e4d4c70
:1002700060151202c8ec24fffced34fffdee34ffe4
:10028000feef34ffff80e5e493a3fce493a3fde4d9
:1002900093a3fee493a3ffef4e4d4c6015120305ac
:1002a000ec24fffced34fffdee34fffeef34ffffe6
:1002b00080e5d0e0ffd0e0fed0e0fdd0e0fce493ac
:1002c000a3c0e0e493c0e022c0e0c0f088f01201d7
:1002d0002da8f04007120104a8f0701aa3a3a3a34d
:1002e00012012da8f0a3a3a3a34013d0f0d0e0d017
:1002f000e0d0e00202b2a3a3a3a3a3a3a3a3a3a35a
:10030000d0f0d0e022c0e0c0f088f0120104a8f0e4
:10031000a3a3a3a3700bd0f0d0e0d0e0d0e0020202
:10032000b2a3a3d0f0d0e02274022408f874003401
:1003300000f9e4e9f8f5d374022408f5d25392feeb
:1003400022a2afe433f8c2af5392fe906270e0a2f3
:10035000e740f5e9c333906272f0906270e0d2e05a
:10036000f0906270e0a2e740f8e8fae8a2e092af0d
:100370005392fe2274fa1201cba2afe433f8c2af5b
:10038000ecfeedffe4effe900002f0ec900003f0d5
:100390009000047462f09000057473f0900006748d
:1003a00000f0e9900007f09000087412f090000946
:1003b0007442f0eafeebffe4effe906272f0ea9026
:1003c0006271f07e027f00e4effef5d575d4027510
:1003d000d601906270e0d2e1f0906270e0a2e74056
:1003e000f8e8fee8a2e092af7f010201ffc008c07a
:1003f000095392fe906276e0547064307004740386
:1004000080027407fae5c7f88ac790ff00e0900001
:100410001af088c790001ae0a2e0500678807900b0
:10042000800478007900e8f5c6e59ef50890001a8a
:10043000e0a2e050067880790080047800790075a9
:100440000900e865087003e9650970dd9062707461
:1004500008f08ac790001ae0a2e7501975ff4075ae
:10046000f88075fb4243f33c75fad875fc0ad2fe5e
:1004700043fb80805690ff0ae0f5f190ff0be0f51a
:10048000f390ff0ce0f5f490ff0de0f5f590ff021e
:10049000e0f58690ff03e0f5c490ff04e0f5c59019
:1004a000ff05e0f5c290ff06e0f5f890ff07e0f5e4
:1004b000fb90ff08e0f5fc90ff09e0f5fae5f1a2fa
:1004c000e14008e5ff543f4440f5ffd009d0085310
:1004d00092fe2274fa1201cb7900ecfeedffee24bd
:1004e000fffcef34fffdee4f60128a828b83e02920
:1004f000f98a828b83a3aa82ab8380de7f0102010b
:10050000ffe51824ecf5187e005392fe900001e000
:1005100090001bf07ea5e5c7f50975c7007c007d3e
:10052000707a007b901204d3e92efe8509c7750806
:10053000037f01efc39508501ae5c7f5098fc77c03
:10054000007d807a007b801204d3e92efe8509c7e6
:100550000f80e0ee7027e59d54186410700890003d
:100560001be0a2e040179000017403f00592900197
:100570001de0f582a3e0f58305921201c91203ed97
:100580009000017400f012032812093d7480c0e04d
:10059000e518a818d0e0f27404c0e0e5182401f8ca
:1005a000d0e0f27409c0e0e5182402f8d0e0f2745b
:1005b00000c0e0e5182403f8d0e0f2750c00750dda
:1005c00000750e00750f00e5182404f8740c120174
:1005d0008fe4f50af50b780a1202377c007d00e5fe
:1005e000182402faab93e5182403f8e22404f91264
:1005f00005fb05180518120acf80fb74f71201cb12
:1006000015181518a81812022789088a848b85ecfa
:10061000feedffe518240bf8e2f50a08e2f50b7889
:100620000a120237eefceffdaa84ab85a908120975
:100630004105180518a81812022f051805187f047f
:100640000201ff74f71201cbe518249cf518eafead
:10065000ebff8e828f837808120180900123780847
:1006600012016d780812024c000000000500000025
:1006700000000000b20800000900b20800000901f3
:100680009006000009027f07000009034f082e09a9
:1006900090012778081201808e828f83a3a3a3a3e1
:1006a000780812011d50637400c0e0e5182450f86a
:1006b000d0e0f27402c0e0e5182451f8d0e0f27402
:1006c00009c0e0e5182452f8d0e0f27401c0e0e57a
:1006d000182453f8d0e0f2e5182454f87480f20896
:1006e0007401f2e4f508f50978081202377c007d00
:1006f00000e5182452faab93e5182453f8e22404d9
:10070000f91205fb0518051880728e828f83a3a34a
:10071000a3a31201a490011f1201b07400c0e0e570
:1007200018243cf8d0e0f27402c0e0e518243df84b
:10073000d0e0f27409c0e0e518243ef8d0e0f2748d
:1007400001c0e0e518243ff8d0e0f2e5182440f8b5
:100750007400f2087400f2e4f508f5097808120252
:10076000377c007d00e518243efaab93e518243f62
:10077000f8e22404f91205fb0518051802092e9069
:10078000011f7808120180e50854fff8e5095407b5
:10079000f9e849701490011f7808120180740b78f1
:1007a00008120141a9081203418e828f83a3a3a3db
:1007b000a3e0f9ee2405fcef3400fd90011f78085a
:1007c00012018074027808120141aa08ab091203d1
:1007d000748e828f83a3a3a3a3e0f508e4f509f543
:1007e0000af50b90011f780812015a7400c0e0e569
:1007f000182428f8d0e0f27402c0e0e5182429f8a3
:10080000d0e0f27409c0e0e518242af8d0e0f274d0
:1008100002c0e0e518242bf8d0e0f2e518242cf80b
:100820007400f2087400f2e4f508f5097808120281
:10083000377c007d00e518242afaab93e518242bb9
:10084000f8e22404f91205fb0518051802092e74b4
:1008500000c0e0e5182414f8d0e0f27402c0e0e52e
:10086000182415f8d0e0f27409c0e0e5182416f851
:10087000d0e0f27403c0e0e5182417f8d0e0f2e508
:10088000182418f87400f2087400f2e4f508f50969
:1008900078081202377c007d00e5182416faab9325
:1008a000e5182417f8e22404f91205fb05180518c9
:1008b000807c8e828f83a3a3a3a3e0606c7480c02e
:1008c000e0e518a818d0e0f27404c0e0e5182401af
:1008d000f8d0e0f27409c0e0e5182402f8d0e0f2a4
:1008e0007400c0e0e5182403f8d0e0f27508007544
:1008f0000900750a00750b00e5182404f874081245
:10090000018fe4f508f50978081202377c007d00b4
:10091000e5182402faab93e5182403f8e22404f95d
:100920001205fb05180518800575c90880fe92f0b0
:10093000e5182464f518a2f07f040201ff5392fe2b
:100940002274fa1201cb15181518a818120227e9fb
:10095000fee5182408f8e2f58208e2f58305929096
:10096000001ce0a2e05040eeff74ff2ffeef601885
:10097000e586a2e040fa8a848b85e0f5c18a848b03
:1009800085a3aa84ab8580dfecf8edf9e824fffcb1
:10099000e934fffde849600fe586a2e040fa539292
:1009a000fee0f5c1a380e143920190001ce05402f7
:1009b000603e8e0874ff2508fee5086016a2f84028
:1009c000fc8a848b85e0f5f98a848b85a3aa84aba5
:1009d0008580dfecf8edf9e824fffce934fffde861
:1009e00049600da2f840fc5392fee0f5f9a380e3c4
:1009f000a81812022f051805187f010201ffecf854
:100a0000edf9e824fffce934fffde849604ae5869a
:100a1000a2e24004a2fa50f6e586a2e2501a5392ee
:100a2000fe90001ce04401f0e5c18a828b83f08acd
:100a3000828b83a3aa82ab83a2fa50c25392fe9008
:100a4000001ce04402f0e5f98a828b83f08a828bf5
:100a500083a3aa82ab8380a65392fe2274fa12016a
:100a6000cb15181518a81812022775841d75850056
:100a70007c047d007a1d7b001209fe0592e0f87966
:100a8000005407f8e95400f9e4c8f9e8fee9ff85e5
:100a900084828585830592a3e0f879004efee94fb4
:100aa000ffee4f6011eefceffde5842404fae585ce
:100ab0003400fb1209feaa84ab851206437a017b3f
:100ac00000a81812022f051805187f010201ff1255
:100ad0000a5c5392fe225392fe2274fa1201cb1545
:100ae000181518eafeebffa818eef208eff2aa18a4
:100af000ab937901120ad680ee12009322ffffff1a
:100b0000fffffffffffffffffffffffffffffffff5
:100b1000ffffffffffffffffffffffffffffffffe5
:100b2000ffffffffffffffffffffffffffffffffd5
:100b3000ffffffffffffffffffffffffffffffffc5
:100f000012010002000000205824feff0000010230
:100f1000030109021b0001010480250904000000ef
:100f2000fe01020409210d03e84000010104030948
:100f300004120342006c00750065006700690067d9
:100f400000610016034c006f007700200045006e22
:100f50000065007200670079000a03310032003337
:100f6000003400080344004600550000ffffffff67
:100f7000ffffffffffffffffffffffffffffffff81
:100f8000ffffffffffffffffffffffffffffffff71
:100f9000ffffffffffffffffffffffffffffffff61
:100fa000ffffffffffffffffffffffffffffffff51
:100fb000ffffffffffffffffffffffffffffffff41
:100fc000ffffffffffffffffffffffffffffffff31
:100fd000ffffffffffffffffffffffffffffffff21
:100fe000ffffffffffffffffffffffffffffffff11
:100ff000ffffffffffffffffffffffffffffffff01
:101000000210f7023378ffffffffff02271fffffe9
:10101000ffffff0227beffffffffff022872ffff57
:10102000ffffff02295dffffffffff023bc6ffff3f
:10103000ffffffffffffffffffffff022816ffff7d
:10104000ffffff02278dfffffffffffffffffffff7
:10105000ffffff02335effffffffffffffffffff0a
:10106000ffffffffffffffffffffff0226c0ffffa5
:10107000ffffff0228e5ffffffffff0226f1ffff52
:10108000ffffff02337c7582fd75837f74001211b0
:1010900012121133b900030210e1e479347802b876
:1010a00000028004f709d8fce4900302788c7906ea
:1010b0008002f0a3d8fcd9fa90088daa82ab839065
:1010c000113978c779028015e493a3ac82ad838a85
:1010d000828b83f0a3aa82ab838c828d83d8e9d9db
:1010e000e775825475837f740012111275823d7505
:1010f00083d6740212111275d00075813f753100cc
:10110000753202753303759f007593005392fe028a
:101110001091c09ff59fe473d09f225392fed0831d
:10112000d082c09fe493c0e0740193c0e074029346
:10113000f59f2279015392fe22ce3cd83ce23cec52
:101140003cf63c003d0a3d143d1e3d283d323d3cf1
:101150003d463d503d5a3d643d6e3d783d823d8c5f
:101160003d963da03daa3db43dbe3dc83dd23ddccf
:101170003de63df03dfa3d043e0e3e183e223e2c3b
:101180003e363e403e4a3e543e5e3e683e723e7ca7
:101190003e863e903e9a3ea43eae3eb83ec23ecc17
:1011a0003ed63ee03eea3ef43efe3e083f123f1c85
:1011b0003f263f303f3a3f443f4e3f583f623f6cef
:1011c0003f763f803f8a3f943f9e3fa83fb23fbc5f
:1011d0003fc63fd03fda3fe43fee3ff83f02400cce
:1011e00040164020402a4034403e40484052405c37
:1011f0004000800000631569156f1575157b15811a
:1012000015eb1489166b16ef16d716dd16571b153e
:1012100018551d8d18e9168f161d16f516e514b410
:101220000301ffffff0000000080ffffffff010040
:1012300000000400000000000000c00000000300e7
:10124000000200008d1801020300000d1a00000fbb
:1012500000c3a88ee8b19dcf7f5eb98b9f41efb0f0
:1012600055f401fa00960064004b0032001e001491
:1012700000d6be898e00010602121315142941768c
:1012800071ffc1fbe84c90728be7b3518963ab23cc
:101290002302841872aa612f3b51a8e53749fbc984
:1012a000ca0c18532cfd45e300400000ffffffff70
:1012b000faffffff0000800062000000070000004e
:1012c0000500060007000000010001000001000108
:1012d00002020300020000000000020201000240be
:1012e000420f0019000000093d0000e5fffffffb71
:1012f000349b5f800000800010000000000000129e
:10130000111b68be0212111b7ebe0212111b06bf0a
:101310000212111b97bf0212111bafd50112111b34
:10132000dfd50112111beed50112111bdfd6011200
:10133000111bf7d60112111b06d70112111b1cd766
:101340000112111b28d70112111b6ad70112111ba0
:1013500097d70112111be9d70112111b17d80112df
:10136000111b74d80112111b90d80112111bccd87b
:101370000112111be4d80112111b77d90112111ba4
:10138000edd90112111b52da0112111b8bda011275
:10139000111bddda0112111b18db0112111b43dbdb
:1013a0000112111b9edb0112111be2db0112111b4a
:1013b00009dc0112111b59dc0112111bb4dc0112f2
:1013c000111bb7dc0112111b15dd0112111b4cddc5
:1013d0000112111b84dd0112111bbcdd0112111b56
:1013e000f3dd0112111b1dde0112111b26de01129d
:1013f000111b43de0112111b6ede0112111babde4d
:101400000112111bebde0112111b18df0112111b5f
:1014100064df0112111b9ddf0112111b2be0011271
:10142000111bdbe00112111b2ae10112111b8ae1e1
:101430000112111b95e10112111bc2e10112111bd6
:10144000cde10112111b6ce20112111bf8e2011235
:10145000111b46e30112111b5ee30112111b7ce319
:101460000112111b9ee30112111bbfe30112111b9c
:10147000dbe30112111b51e40112111b96e401126e
:10148000111b11e50112111b27e50112111ba3e528
:101490000112111bd9e50112111be8e50112111b04
:1014a00030e60112111b3fe60112111b57e6011233
:1014b000111b80e60112111bb0e60112111bdde6c3
:1014c0000112111bf0e60112111b28e70112111b7a
:1014d00090e70112111bc1e70112111beee7011287
:1014e000111bfae70112111b00e80112111b29e878
:1014f0000112111b9fea0112111b24eb0112111b97
:101500008deb0112111bc5eb0112111b0aec01122c
:10151000111b4eec0112111b92ec0112111b11ed6b
:101520000112111b65ed0112111bbfed0112111b00
:101530003bee0112111b80ee0112111b32ef011262
:10154000111bf6ef0112111becf00112111beff051
:101550000112111b04f10112111b19f10112111bcf
:101560006dcd0212111bbbcd0212111bd1cd021287
:10157000111be7cd0212111bfdcd0212111b1ece55
:101580000212111b34ce0212111b4ace0212111b81
:10159000afa40212111bf6a40212111b39a50212ec
:1015a000111b57a50212111bcfa50212111b40a639
:1015b0000212111b78a60212111bd6a60212111bd1
:1015c000f1a60212111b1ea70212111b7ca7021208
:1015d000111b93a70212111bb5a70212111be0a742
:1015e0000212111b15a80212111b41a80212111b95
:1015f0007aa80212111ba1a80212111bd4a8021270
:10160000111be3a80212111beca80212111b62a904
:101610000212111b8aaa0212111b0fba0212111b0d
:10162000e9ba0212111bccbb0212111b60bc0212e0
:10163000111bc3bc0212111b10bd0212111b58bd9d
:101640000212111b26be0212111b3dbe0212111bfb
:1016500054be0212111b747e0012111ba17e0012d7
:10166000111b2ef10112111b8efd0112111b5affcd
:101670000112111bbcc90212111b24ca0212111b38
:1016800048ca0212111b97ca0212111becca02129d
:10169000111b93cb0212111baccb0212111b4395f1
:1016a0000212111b60950212111b7b960212111b74
:1016b000dc960212111b87970212111b0699021267
:1016c000111b8e990212111bd5990212111b3e9a01
:1016d0000212111b9c9a0212111bf19a0212111b89
:1016e0006c9b0212111bfd9b0212111b869c0212a5
:1016f000111bef7f0012111bf37f0012111bf57fee
:101700000012111bfb7f0012111b179d0212111bef
:101710002f9d0212111b5a9d0212111ba79d02122e
:10172000111bc09d0212111bf29d0212111b309e53
:101730000212111b629e0212111bd79e0212111b74
:10174000fc9e0212111b529f0212111bd3a3021204
:10175000111b87a40212111bcfd10212111be7d15a
:101760000212111b58d20212111b9bd20212111b22
:1017700068b50212111bc1b50212111b29b6021263
:10178000111b41b60212111b6bb60212111b85b65a
:101790000212111bb9b60212111b0fb70212111b54
:1017a0004ab70212111bfab70212111b1eb802121d
:1017b000111ba6b80212111bd1b80212111b13b9ca
:1017c0000212111b38b90212111b4cb90212111b63
:1017d00061b90212111b09ba0212111b21b00212c7
:1017e000111b2fb00212111b60b00212111b89b025
:1017f0000212111b97b00212111bdeb00212111b54
:101800009db10212111b12b20212111b6fb2021211
:10181000111b9bb20212111b14b30212111bf0b365
:101820000212111bfbb30212111b20b40212111b76
:1018300074b40212111bdab40212111b0cb502129d
:10184000111b5ad40212111b7ad40212111ba3d4f9
:101850000212111be3d30212111bf7d30212111b48
:101860004ed40212111b8ad50212111b26d6021267
:10187000111b60d30212111b8dd30212111b3e8b60
:101880000212111ba58b0212111bbc8b0212111b21
:10189000008c0212111b468c0212111bac8c02121e
:1018a000111b008e0212111b288f0212111bca8fee
:1018b0000212111bee8f0212111b30900212111b2b
:1018c000de900212111b21910212111b789102125b
:1018d000111b8b910212111b8b920212111bab93e5
:1018e0000212111b21940212111b7a450012111bc6
:1018f00022470012111b9c470012111bef480012d7
:10190000111b61490012111b9b490012111b544a03
:101910000012111be24a0012111ba54b0012111bf1
:10192000cd4c0012111bc74d0012111bf54e0012b9
:10193000111b5d4f0012111bc54f0012111b4250ad
:101940000012111bf8500012111b6a510012111bda
:1019500003520012111b69520012111bd7520012c0
:10196000111b2c530012111bc2530012111b755472
:101970000012111b3c550012111bf6560012111bd0
:101980003e590012111b83590012111bff590012fe
:10199000111b675a0012111bb55a0012111b415c32
:1019a0000012111be35c0012111b515d0012111b90
:1019b000ca5e0012111b2d5f0012111b4e60001237
:1019c000111b36610012111b5c620012111bc363f4
:1019d0000012111b7e650012111b2e680012111bd4
:1019e000bb680012111b78690012111b6f6a00128c
:1019f000111bd36a0012111b2f6f0012111b95715e
:101a00000012111b64720012111bcd740012111b05
:101a1000f9750012111b7f770012111b96770012c7
:101a2000111b15c20212111b53c20212111bbac2a2
:101a30000212111be6c20212111bb2c30212111bc9
:101a400089c40212111bbdd00212111b16d1021241
:101a5000111b77d10212111b00800112111b1e8075
:101a60000112111b3b800112111b58800112111b26
:101a7000bb800112111b4e810112111b2083011228
:101a8000111b86830112111bca830112111b0784cb
:101a90000112111b3c840112111b87840112111bbe
:101aa000f5840112111ba3850112111bb1850112ce
:101ab000111bed860112111b42890112111bce89e7
:101ac0000112111b028a0112111b498b0112111bf9
:101ad000858c0112111bac8c0112111be88c0112b8
:101ae000111b1b8d0112111bff900112111b27915d
:101af0000112111b89910112111b00970112111b78
:101b000042970112111b82970112111b3898011282
:101b1000111b13990112111b759b0112111bc19c02
:101b20000112111b329d0112111b6e9f0112111b1c
:101b3000e69f0112111b2aa00112111b78a00112ad
:101b4000111bcba00112111b67a10112111bb0a127
:101b50000112111b0ba20112111b15a20112111b64
:101b600052a30112111be7a30112111baba4011216
:101b7000111b57a50112111b0ca70112111b2ea737
:101b80000112111b4ba90112111ba0aa0112111b5a
:101b90003dab0112111b91ab0112111bf6ab0112ef
:101ba000111be6ad0112111bf7ad0112111b01aea5
:101bb0000112111bf0af0112111b4db00112111bcc
:101bc0008ab00112111bfeb00112111b1ab10112d1
:101bd000111bc3b10112111b3eb20112111b9fb2a6
:101be0000112111b15b30112111b4cb30112111b71
:101bf00081b30112111b9fb30112111bfeb301121d
:101c0000111b0cb40112111b4bb40112111bbcb4fb
:101c10000112111b19cf0212111bbdcf0212111b91
:101c2000e1cf0212111b2cd00212111b6bd0021239
:101c3000111b08d60212111b00800212111b2c80ee
:101c40000212111b78800212111bc5800212111b97
:101c500041810212111b83830212111b888402121c
:101c6000111be9860212111bb9870212111ba988e8
:101c70000212111b9c890212111b0d8a0212111be8
:101c80000f8b0212111bcfc40212111bfbc40212d4
:101c9000111b12c50212111bacc50212111bd8c6b2
:101ca0000212111b88b50112111bf5b50112111b8f
:101cb00012b60112111b3fb60112111ba8b6011278
:101cc000111bd4b60112111b08b70112111b60b70a
:101cd0000112111b8db70112111bf0b70112111b5c
:101ce0004bb80112111b10b90112111b92b901124c
:101cf000111b34bb0112111becbb0112111b99be4d
:101d00000112111bf6c10112111b38c20112111b65
:101d10008dc20112111b3ec30112111b1ec50112ff
:101d2000111bc2c50112111b03c60112111b51c6a2
:101d30000112111ba9c60112111bcfc60112111be2
:101d400022c70112111b63c70112111be4c8011243
:101d5000111bfec90112111b0fca0112111b6dcb01
:101d60000112111b83cb0112111babcb0112111bf2
:101d700061cc0112111b76cc0112111ba8cc0112ef
:101d8000111bc0cd0112111b83ce0112111bcfce2e
:101d90000112111b14cf0112111bc7cf0112111b0d
:101da00022d00112111b1fd10112111b73d101127c
:101db000111bb7d10112111b01d30112111b16d532
:101dc0000112111b46d50112111bb6cb0212111bb9
:101dd000c3cb0212111be6cb0212111b29cd02123a
:101de000111b36cd0212111b64cd0212111baeaabb
:101df0000212111b1eab0212111b4bab0212111b64
:101e000095ab0212111b60ac0212111b0aae02123a
:101e1000111b64ae0212111b72ae0212111b79afbc
:101e20000212111be2af0212111bc5d20212111bca
:101e3000f3d20212111b23d30212111b7ac7021212
:101e4000111b07c80212111b39c80212111baac8a4
:101e50000212111b4ec90212111b61c90212111b81
:101e600086100012111bcad40212111b37d50212a0
:101e7000111bd9d502e066701008a3e066700a084d
:101e8000a3e066700408a3e06622c3e7960809e7aa
:101e9000960809e7960809e796a2d265d03322c3cf
:101ea000e09608a3e09608a3e09608a3e096a2d2e5
:101eb00065d03322c021c3e096f52108a3e0964205
:101ec0002108a3e096422108a3e0964221a2d26510
:101ed000d033e5217001d3d02122c3e09608a3e0de
:101ee0009608a3e09608a3e09622c021c3e096f5e9
:101ef0002108a3e096422108a3e096422108a3e02e
:101f00009645217001d3d02122080808eac0e0ebf1
:101f1000c0e086f0e7a4fa180986f0e7a42afa18c8
:101f20000986f0e7a42afa180986f0e7a42afa1924
:101f300086f0e7a4fbe5f02afa190886f0e7a42b5f
:101f4000fbe5f03afa190886f0e7a42bfbe5f03a36
:101f5000fa18180986f0e7a4c5f02bfbe43afa1941
:101f600008e7c5f0c6a426f6e5f03bfbe43afa180c
:101f700086f0e7a4f6e5f00826f6e43b08f6e43a36
:101f800008f6d0e0fbd0e0fa22e4cfc0e0e4cec017
:101f9000e0e4cdc0e0e4ccc0e075f020c3e633f669
:101fa00008e633f608e633f608e633f6181818ecb8
:101fb00033fced33fdee33feef33ffc3ec9709ed59
:101fc0009709ee9709ef97191919400fffec97fc45
:101fd00009ed97fd09ee97fe191906d5f0beecf74d
:101fe00009edf709eef709eff7191919d0e0fcd060
:101ff000e0fdd0e0fed0e0ff221220611818181298
:102000001f89122050191919221220501919190864
:102010000808e618181820e7e0121f891220611836
:10202000181822090909e719191920e7dc08080816
:10203000e618181820e703021f89122061181818e3
:10204000121f89122061181818122050191919220c
:10205000e4c397f709e497f709e497f709e497f7da
:1020600022e4c396f608e496f608e496f608e496a9
:10207000f6226017080808c6a2e713c618c613c6da
:1020800018c613c618c613c6d5e0e922601608089c
:1020900008c6c313c618c613c618c613c618c61377
:1020a000c6d5e0ea22700908080822601618181838
:1020b000c6c333c608c633c608c633c608c633c649
:1020c000d5e0ea22e627f60809e637f60809e637fa
:1020d000f60809e637f622e026f608a3e036f60809
:1020e000a3e036f608a3e036f622e026f008a3e0e7
:1020f00036f008a3e036f008a3e036f022c3e697f6
:10210000f60809e697f60809e697f60809e697f64d
:1021100022c3e0c696f608a3e0c696f608a3e0c67a
:1021200096f608a3e0c696f622e056f608a3e05617
:10213000f608a3e056f608a3e056f622e647f608ae
:1021400009e647f60809e647f60809e647f622e0f9
:1021500046f608a3e046f608a3e046f608a3e046e4
:10216000f622e046f008a3e046f008a3e046f008b7
:10217000a3e046f022e066f608a3e066f608a3e0d6
:1021800066f608a3e066f622e0f608a3e0f608a3e8
:10219000e0f608a3e0f622e493f608740193f6084b
:1021a000740293f608740393f622e6f008a3e6f0af
:1021b00008a3e6f008a3e6f022e0faa3e0fba3e020
:1021c000fca3e0fd22eaf0a3ebf0a3ecf0a3edf01a
:1021d00022cac0e0e6f0a308dafad0e0fa22cac0c8
:1021e000e0e0a30592f0a30592daf6d0e0ca22ca95
:1021f000c0e0e493a30592f0a30592daf5d0e0ca1b
:10220000225392fefae9fb7921e7f0a309dafae812
:10221000f0a3ebf9f0a3ecf0a3edf0a3eef0a3ef45
:10222000f0a3e520f0a3e5f0f0a3e592f0a3e584a8
:10223000f0a3e585f0a3e581f0a3e531f0a3e53255
:10224000f0a3e533f0a3d0e0fad0e0f0a3caf0eabf
:10225000c0e0e0c0e07a007b00225392fecac0e0fa
:10226000ebc0e07921e0f7a309dafae0f8a3e0f99e
:10227000a3e0fca3e0fda3e0fea3e0ffa3e0f520c4
:10228000a3e0f5f0a3e0c0e0a3e0f584a3e0f585ca
:10229000a3d0e0f592d0e0fbd0e0fae0f581a3e036
:1022a000f531a3e0f532a3e0f533a3d0e0d0e0e0d0
:1022b000c0e0a3e0c0e0ea4b70027a0122c3e498d8
:1022c000f8e499f91222fe8026c3e49afae49bfb13
:1022d000e920e7e91222fee498f8e499f922c3e440
:1022e00098f8e499f91222fee498f8e499f9c3e425
:1022f0009afae49bfb22eb20e7cfe920e7e0b90064
:1023000010bb0008e88af084f8aaf022e4fbc8fabf
:1023100022eb70227b10c833c8c933c9335007c3be
:102320009ac3dbf280069a50012adbeac833f4c86c
:10233000c933f4c9fa2275f008e4c833c8c933c9ef
:1023400033c99ac99b5004c92ac93bd5f0ecfbc8d4
:1023500033f4c8e4c9fa22600d08c6a2e713c61810
:10236000c613c6d5e0f322600c08c6c313c618c650
:1023700013c6d5e0f422700422600d18c6c333c61c
:1023800008c633c6d5e0f41822253210af08f5325e
:10239000400215338008f53240021533d2af22c017
:1023a000d0253210af08f532500205338008f532df
:1023b00050020533d2afd0d0222532f58210af08bb
:1023c000f532400215338008f53240021533d2afa2
:1023d00085338322c5822532c582c583353310af4c
:1023e00007f5338582328007f533858232d2afc557
:1023f00083222532f582e43533f583222532f584b4
:10240000e43533f58522e4735392fe2532c582c04c
:10241000e0e53334ffc583c0e0e532c3958224f89c
:1024200010af0885833385823280088583338582a7
:1024300032d2afcef0a3e520f0a37821e608f0a3d6
:10244000defaeff0a3e58124faf8e608f0a3e60847
:10245000f0a3e608f0a30808e608f0a3e608f0a356
:1024600015811581d0e0fed0e0f815811581158128
:10247000e8c0e0eec0e0225392fe2532c582c0e003
:10248000e53334ffc583c0e0e532c3958224f910fb
:10249000af08858333858232800885833385823215
:1024a000d2afcef0a3e520f0a37821e608f0a3deba
:1024b000faeff0a3e58124fbf8e608f0a3e608f0c4
:1024c000a30808e608f0a3e608f0a315811581d05b
:1024d000e0fed0e0f815811581e8c0e0eec0e02212
:1024e0005392fe853383853282e0a3fee0a3f5207c
:1024f0007821e0a3f608dffae0a3ffe0a3c0e0e064
:10250000a3c0e0e0a3c0e0e0a3c0e0e0a3c0e0100f
:10251000af08858232858333800885823285833394
:10252000d2afd083d0825392fe0211185392fe850f
:102530003383853282e0a3fee0a3f5207821e0a377
:10254000f608dffae0a3ffe0a3c0e0e0a3c0e0e00c
:10255000a3c0e0e0a3c0e010af08858232858333da
:102560008008858232858333d2afd083d082539264
:10257000fe22c0925392fec0d02532c582c0e0e553
:102580003334ffc583c0e0e532c3958224f210af37
:10259000088583338582328008858333858232d2f1
:1025a000afc8f0a3e9f0a3eaf0a3ebf0a37921e729
:1025b00009f0a3d8faecf0a3edf0a3eef0a3eff04e
:1025c000a3d0e0f0a3d0e0f0a3d0e0f0a3e520f0aa
:1025d000a3e5f0f0a3d0e0f0225392fe853383858b
:1025e0003282e0c0e0a3e0f9a3e0faa3e0fba37825
:1025f00021e0f608a3dffae0fca3e0fda3e0fea3e0
:10260000e0ffa3e0c0e0a3e0c0e0a3e0f5d0a3e0da
:10261000f520a3e0a3f5f0e0a3c0e010af088583a8
:10262000338582328008858333858232d2afd0e011
:10263000d082d083f592d0e0f8d0e032e584f0a3e8
:10264000e585f022e0a3f584e0f585227404800698
:10265000740280027401c0e0f4041223b9d0e012c5
:1026600021d12274048006740280027401c0e0f457
:10267000041223b9d0e01221de22d083d082e9c037
:10268000e0e493a3c386f0c5f095f0f908e493a3c2
:1026900086f0c5f095f0700be493a3c3994005e96b
:1026a000048002a3e475f002a42582f582e5f035ea
:1026b00083f583d0e0f9e493a3c0e0e493c0e02283
:1026c000c0e074f1122572123c7b9003851221c583
:1026d000e58955ab900389f0e58090038cf07b0091
:1026e0007a007906121e0f758900c2c57f01022586
:1026f000d9c0e074f1122572123c7b90038512213f
:10270000c5e58a558d90038af0e59090038df07ba6
:10271000017a007906121e0f758a00c2eb80cdc0c7
:10272000e074f11225729061a9e4f0900393e064e3
:102730000f7012e5c7f89006a8e0f5c790ff1ce0ff
:10274000f4f5ae88c7e5bbf9e5bafae9fb90039367
:10275000e0c333f8e433f9749428f582740339f54f
:1027600083eaf0a3ebf0900393e02410fb7a007966
:1027700006121e0fe5a8f8c2af90080ae0c2e2f008
:10278000753400e8a2e7a2e792af0226ecc0e0c0f1
:10279000d075d008c092c082c083c0f0e5d1f87572
:1027a000d100c2c0a2e350097b037a007904121e53
:1027b0000fd0f0d083d082d092d0d0d0e032c0e021
:1027c000c0d075d018c092c021c022c082c083c0c2
:1027d000f05392fe9005721228d7602b90052de0e1
:1027e000700c7401f07b007a007904121e0fee90d9
:1027f0000572f0e5c1c0e074742521f582740534da
:1028000000f583d0e0800be5c4a2e6500690052ccd
:102810007401f00228c6c0e0c0d075d018c092c0c4
:1028200021c022c082c083c0f0c2e95392fe90054d
:102830002fe0fa90052ee09a543ff860258a217423
:10284000302521f582740512294190052ff089c1a8
:10285000900570e06870197b027a007904121e0fef
:10286000800ee5a8f8c2af90080ae0c2e312294d35
:102870008054c0e0c0d075d018c092c021c022c022
:1028800082c083c0f05392fe9005fc1228d7602ac4
:102890009005b7e0700b7401f07b00fa7904121e0a
:1028a0000fee9005fcf0e5f9c0e074fe2521f582fd
:1028b00074053400f583d0e0800be5fba2e65006fa
:1028c0009005b67401f0d0f0d083d082d022d02110
:1028d000d092d0d0d0e032e0f52174012521543fd0
:1028e000fea3e06e22c0e0c0d075d018c092c02117
:1028f000c022c082c083c0f0c2ea5392fe9005b9e4
:10290000e0fa9005b8e09a543ff860258a2174ba3d
:102910002521f58274051229419005b9f089f990b5
:1029200005fae06870197b027a017904121e0f80a3
:102930000ee5a8f8c2af90080ae0c2e412294d8063
:10294000853400f583e0f974012a543f22f0753490
:1029500000e8a2e7e433f9e8a2e792af22c0e0740e
:10296000f1122572759800e5a8f8c2af90080ae048
:10297000d2e1f0753400e8a2e7a2e792af12174364
:102980007f010225d9c082c0835392fe906059e036
:10299000f89007dbe028f0906058e0f89007dce062
:1029a00028f090605a1229be90605e1229be906095
:1029b0005ce0f89007dee028f0d083d08222e0f8d7
:1029c0009007dde028f022c082c0835392fe90077a
:1029d000dbe4f0a3f0a3f0a380de74f71224777990
:1029e00000121dc790072712320eeac398f8eb9920
:1029f000f9e82404fee93400ff900734e0fca3e08a
:102a0000fdc3ee9cef9d402e900732e0fca3e0fd5d
:102a1000900736e02af8a3e03bf9e8c39cf8e99d6b
:102a2000f9900727123205a3ecf0a3edf0900734dc
:102a3000ecf0a3ed8023900727122edb90073412d1
:102a4000300290073412320e900729123205900797
:102a500030e070047402800114f07a257b07123a8a
:102a600009023a5c74f7122477e9600924fe601dbc
:102a700014601a803290072ee0a2e35009900731cb
:102a8000e06024148020c2e2f0d2e3801990072e87
:102a9000e0a2e2500c900731e06408600ae0048094
:102aa00005c2e3f0d2e2f090072fe0700890072d06
:102ab00074fff0804890600a122ed3703d90618fb1
:102ac000e0c0e0900731e0f87408c398f8d0e0b8af
:102ad00000028004c313d8fcf52174ff652170093e
:102ae00090600ae4f0a3048010e5212401f8e434a6
:102af00000f990600ae8f0a3e9f01229da023a5ce2
:102b000074f7122477e924fc600624fe6029800d06
:102b10009007f4e06401705f121b21805a90074e09
:102b2000e064017012900748e4f07b091232d5fa94
:102b30007900121e0f8040900748e0700890074609
:102b400074fff080327900121dc78a218b22a821e0
:102b5000a92290074ae028faa3e039fb90618fe0b0
:102b6000541ff8ea28f8eb3400f9900740123205b8
:102b70007a3e7b07123a09023a5c74f712247774a2
:102b8000fe1223b912263c90079812320ee8241246
:102b9000fae93400fb90605ce060088a828b83e095
:102ba000d2e1f0e82430fce93400fde82432f58479
:102bb000e93400f58590605ae0700690605ee06050
:102bc000368a828b83e0a2e14019d2e1f0e8242228
:102bd000f582e9122eb8122ecb1223768c828d83c9
:102be000123a01e40592f0a3f07900853282853330
:102bf000835392fe023a54e8241ef582e9122ebf56
:102c0000fea3e0ff858482858583e02ef0a3e03f6c
:102c1000f08c828d830592e0fca3e0fdc30592e079
:102c20009ca3e09d50c388828983a3a3a3a3a3a3ed
:102c3000a3a3a38582848583858a828b83e0a2e116
:102c4000500474088002743e0592f07b02888289e9
:102c5000830592a3a3a3a3a3a3a3a3e0fa790012dd
:102c60001e0f7901808574f512247774fe1223b942
:102c700012263c122ec3240a122ea7fc7003022e29
:102c80008fee242e1236c512320e8e828f83a3a3ae
:102c9000a3a3a3a3a3a38582238583248e828f83ea
:102ca000a3a3a3a3a3a3a3a3a3aa82ab83ee2434c9
:102cb000122ebc687003a3e069701a74026c700372
:102cc000022e2574016c607774096c60258a828bf2
:102cd0008374228055ec146066147003022e252440
:102ce000fa601c14600c146042147003022e6b0214
:102cf0002e8f906008e0a2e65003022e8f802cee0b
:102d00002439122eb5801388828983a3a3a3e0649b
:102d1000037003022e8f88828983122ed370e88a73
:102d2000828b83e0641370037416f07b0285238228
:102d3000852483e0fa7900121e0f7901022e91eeac
:102d400024551234c9ee244cfcef3400fdea24ff74
:102d5000f521eb34fff522e521687003e522697067
:102d600068ee244d122f618e828f83122ed98c82b1
:102d70008d83e0c333f8e433f9e82403f8e9340041
:102d80001231fc9007c9e0a2e050098e828f83a324
:102d9000a31232019007e3e4f0a3f0a3f0a37402be
:102da000f09007c9e0a2e04003022e8f8c828d8351
:102db000e0f875f0e2a4c8aaf075f004a42af9e8d6
:102dc0001231f1123205022e8fea687002eb69604f
:102dd00003022e8f7521097522007821122650eeec
:102de000241bfaef3400fb121e69740212239f9019
:102df00007c9e0a2e05007eefaeffb121a6de405f6
:102e000092f0ee24221236c5122ecb122376ee2437
:102e100030122eb5123a01ee2432122eb5e4f0a390
:102e2000f07b08805de8240108e93400f9ee245cb9
:102e3000122ebc687003a3e06970547521057522d9
:102e4000007821122650ee2457fcef3400fdee24ca
:102e500024faef3400fb121e69740212239feefa6b
:102e6000effb121b1be40592f08024eefaeffb123d
:102e70001749e40592f005929007c9e0a2e0500fcf
:102e80007b07852382852483e0fa7900121e0f795f
:102e9000008532828533835392fe122644740212d7
:102ea000239f7f0402252cf584ef3400f5850592dd
:102eb000e022ee2414f582ef1234bb22f582ef12e9
:102ec00034c322900798123810ee2212302e740369
:102ed000782122123212e84922a3a3e028f0a3e0cd
:102ee00039f02274f812247774fe1223b912263caa
:102ef000900798e0f584a3e0f585122c66e9704e02
:102f0000122b7ae97048e584242ef582e585122e8d
:102f1000bf2401f0a3e03400f0906008e0c0e0e5d9
:102f2000842436f582e585122eb8d0e0f0e58424bd
:102f30001ef582e585122f640592a3a3e028f0a375
:102f4000e039f005929007981234cc123a09853294
:102f500082853383122644740212239f7f01022547
:102f60002cf582ef1234bb122f6b22e0f8a3e0f9ac
:102f7000e8c333f8e933f92274f712247774fe12a8
:102f800023b912263c8a828b83a3a3ac82ad8390a3
:102f900007e8ea241ef584eb122eaaf8a3e0f9e86c
:102fa000c333f8e933f99007cbe0f521a3e0f5222c
:102fb0001230180592e028f8a3e039f98c828d834d
:102fc0001232059007e312300b8c828d831230028f
:102fd0009007e512300b7a207b4e1222fe88218961
:102fe000228c828d83e09521f0a3e09522f090075a
:102ff000ea12300be8c333f8e933f9e81231e90299
:103000003a4dc3e098f0a3e099f0221232129007f3
:10301000cb12302e12301822e88521f0a4c8aaf075
:103020008522f0a42afa8521f0e9a42af922e0f504
:1030300021a3e0f5222274f712247774fe1223b93b
:1030400012263c122ec32412122ea7a2e35008c24d
:10305000e3f005920231dd8e828f830592a3a38572
:103060008221858322906062e060107910121dc772
:10307000852182852283eaf0a3ebf0122c66e960b9
:10308000030231e6122b7ae960030231e690600810
:10309000e0c0e0ee2436122eb5d0e0f09061d5e02d
:1030a000f89061d7e06805926005e0d2e28003e025
:1030b000c2e2f00592906062e09007e56017e024bc
:1030c000c0faa3e03437fb123c509007ea123816de
:1030d0001231e980151234cc123c3a9007ea122fd3
:1030e00067906064e028f0a3e039f08521828522b2
:1030f00083e024fff0a3e034fff0ee242b122ebc7b
:103100009007e7f0ee2420122eb5122ed3604b8ede
:10311000828f83a3a3a3a3a3a3a3a3a3a3e0703a33
:10312000ee24321234c9ea4b7030ee24391234c91d
:10313000ea4b7026e8240108e93400f99007cb1225
:10314000320585218285228312320e9007e81232e1
:1031500005eefaeffb122f7880279007cb7401f071
:10316000a3e4f0ee241e122f6185218285228312b2
:103170002edb9007e312320e8521828522831230e6
:10318000028e848f850592a3a3a3a3a3a305929087
:10319000606412320e7a717b021222fee82405f876
:1031a000e93400f98584828585831232058e828f09
:1031b00083a3a3a3a31234cc858482858583e0f8fe
:1031c000c3ea98eb99a2d265d0335005eaf0a3eb9d
:1031d000f012320bee242e122eb5122edb90079831
:1031e0001234cc123a09023a4e1231f1e8f0a3e956
:1031f0002224eaf8e93402f990606422f98e828f81
:1032000083a3a3a3a3e8f0a3e9f0229007cb123293
:103210001222e0f8a3e0f92274f712247774fe1268
:1032200023b912263c803bc2e5f01232c3e0f80815
:10323000089007f2e028f01232d5c0e01232c3d075
:10324000e0f09007f2e004f0a3e004f0a3e004f063
:103250009007f6e0700c7401f07b007a00790012a0
:103260001e0f90605ae0f52190074fe060079060d4
:103270005de0f8800278009007f3e0fae52128f895
:10328000e43400f9e86a7001e960359007f2e0047f
:10329000547ff52174802521f58274601236c89020
:1032a0000798e0f8a3e0c82408f584e83400f58521
:1032b000e0a2e70592e04003023227d2e50232297c
:1032c000023a4e9007f2e0547ff8748028f5827439
:1032d000601234bb22900798e0f8a3e0c82408f5f8
:1032e00082e81234c32274f512247774fe1223b9d3
:1032f00012263c89210592900798e0f582a3e0f51b
:1033000083858284858385a3a3a3a3a3a3a3a3e02a
:10331000a2e740479007f5e0f8906054e0c398f5c5
:10332000229007f5e02522f0ae82af838012ee24d2
:1033300039faef3400fb121a43ea4b6003121c29de
:1033400085222374ff2523f5220470e2e521a2e6fd
:1033500040097900eefaeffb121b99022e91c0e0b2
:1033600074f11225728535c675a70075a1007950d4
:10337000121de57f010225d975bf0032c0e0c0d023
:1033800075d008c092c082c083c0f08535c6e59173
:10339000fe759b00f4f5915392fe90074fe0600498
:1033a0007808800278007900e844015e60031232f8
:1033b00018eea2e55004f91232e6eea2e75029e534
:1033c000a8f8c2af90080ae0d2e0f0753400e8a295
:1033d000e7e433f9e8a2e792afe594a2e240097589
:1033e0009403e594a2e250faeea2e640030234957b
:1033f000906061e0f99007f3e4f09007f5f0900732
:10340000981234cc8a828b83a3a3a3a3a3a3a3a3e0
:10341000e02404601014600814700f122a64806d98
:10342000122b008068121a6780639007c8e060055d
:103430001460338048906060e064806040e0c0e0e9
:10344000ea2413f582eb122eb8d0e0f0906060e031
:10345000c0e0900798e0f8a3e0c8242cf582e812b9
:1034600034a9d0e08016906058e0f890605ce028c5
:10347000f8ea242cf582eb1234a9e028f09007c971
:10348000e0a2e050051230368003122ee3122985a7
:10349000121a558004a2e75003123a61d0f0d0838b
:1034a000d082d092d0d0d0e0321234c3fa74a32aa2
:1034b000f58274071234bb22f582ef3400f58322c3
:1034c000f582ef3400f583e0221234b8e0faa3e08d
:1034d000fb2274f712247774fe1223b912263c9053
:1034e0000798e0fca3e0fd12320bec2429f582edf5
:1034f000122eb8ec242bfaed3400fb8a848b8574f1
:1035000001687001e97012e0f80592e028fac394ae
:1035100025402a74db2afa8024e0f521e88521f091
:10352000a4f8aaf08521f0e9a42af90592e0fae8c6
:103530002af8e93400f97a257b001222feeaf074b9
:10354000075af87401b800028004c333d8fcfbeac0
:10355000131313541ff8ec28f8ed3400f9e8242471
:10356000f582e91236c8e05b702a8005e8cac39a82
:10357000faec24e5f582ed122ebff8eac39850ec80
:103580008a21ec2521f8ed3400f9e824c0f582e920
:10359000122ebffaec242cf582ed122eb8ea023a74
:1035a0004d74f612247774fe1223b912263c90074c
:1035b0004fe09060026004740e8002740ff0900778
:1035c00049e0906001f09009c51221b9906195120f
:1035d00021c5121ba590074ee0f5217401652190cd
:1035e00007477040e05402f97a507b07121a8b901b
:1035f0000747e0a2e050097ad57b07752140800794
:103600007acf7b07752100a2e150047e8080027e84
:103610000075230678231226547c507d07e5214e41
:1036200044018066e0a2e050087ad57b07784080ac
:10363000067acf7b077800059290077512266b7c7f
:10364000567d0774c92521f58274091236c8e048f1
:10365000f9121a91740112239f90074ee0f8600549
:10366000740268702e900747e0a2e050087ad57b7c
:1036700007784080067acf7b0778000592900795ff
:1036800012266b7c767d07e84404f9121a917401c6
:1036900012239f900747e0a2e0e433f9121a8575e0
:1036a000910090074fe0906182600474c8800274ba
:1036b000c0f0853282853383122644740212239f20
:1036c0007f0302252cf582ef1234bb059222c082c3
:1036d000c0835392fe906002740ff0900730e004b4
:1036e000f064037002e4f0e02425906000f090099b
:1036f000c51221b99061951221c590072ee0542082
:10370000f9121a85121ba590072ee0a2e15004d2ef
:10371000f08002c2f0a2f0e43390600cf090072e2b
:10372000e0a2e1503575d90da2e550047840800241
:103730007800e84403f5d9e0a2e550067ad57b0786
:1037400080047acf7b077906121a5b740675d9005c
:103750001470fae5e170fc75e19575910090618255
:1037600074c10229b874f812247774fe1223b912b6
:10377000263c123803121ba5122eb21221b99061f9
:10378000951221c51238491234d212381bf584ef34
:103790003400f585858482858583123834121b991f
:1037a000ee2412122ebca2e250180592e0f8a3e01b
:1037b000f58388820592a3a3e02402f89061d5e006
:1037c00028f0022f4e74f8122477123803121ba52a
:1037d000122eb21221b99061951221c512384912e8
:1037e00034d212381b122eb5123834121b99ee2423
:1037f0001e122eb512381624fcf8e934ff1231fce3
:10380000022f5c900798123810906002740ff0221b
:10381000e0fea3e0ff22122f6be822ee242c1234ec
:10382000c0906000f07591009007ffe0906182f019
:10383000ee243922123212ee24371234b8e8f0a303
:10384000e9f07900eefaeffb22ee24361234c09054
:103850006008f0ee24181234c0906005f0ee2419d0
:103860001234c0906006f0ee241a1234c090600743
:10387000f09060607480f02274f112247774fe126c
:1038800023b912263c7521007522007c9f7d07809c
:103890001b888289831238108c828d83eef0a3ef0f
:1038a000f088828983123a01882189228c828d8353
:1038b000122ec64f70398c828d83eaf0a3ebf08a0a
:1038c000828b83e4f0a3f0aa21ab22853282853378
:1038d00083122644740212239f7f0802252ce523bd
:1038e0002527f8e5243528f98a828b83122ed9ee14
:1038f000f8eff988828983a3a38a848b850592a334
:10390000a3e0f523a3e0f5240592e0c39523f52376
:10391000a3e09524f5248a828b83a3a3a3a3a3a366
:10392000e0f525a3e0f526c3e5239525e5249526b6
:10393000a2d265d033403e8a828b831232058a82be
:103940008b83a3a3a3a385828485838512320ec3b0
:10395000e52398e52499a2d265d033500d85848261
:10396000858583e523f0a3e524f08c828d83eaf03e
:10397000a3eb0238c688828983a3a3a3a3a3a3e0f1
:10398000f527a3e0f528c3e49527f525e49528f568
:1039900026c3e5259523e5269524a2d265d033508c
:1039a000288a828b83a3a3a3a3a3a3a3a3e0a2e754
:1039b00050030238de88828983a3a3a3a3a3a3a311
:1039c000a3e0a2e7500302389188828983a3a3a3ce
:1039d000a3858284858385c3e49523fce49524fd37
:1039e000123810c3ec9eed9fa2d265d033500b85e8
:1039f0008482858583ecf0a3edf0e8fce9fd0238d4
:103a0000ace521f0a3e522f02274f712247774fece
:103a10001223b912263cea4b6031a2afe433fec256
:103a2000af1238788a828b838016aa82ab83858214
:103a3000848583850592e0f582a3e0f583123878ca
:103a4000e582458370e4eea2e092af8001f085321a
:103a500082853383122644740212239f7f0202253b
:103a60002c74f51224777900121dc78a238b2479d0
:103a700077121de59061b1e4f0e070f87403f0e0b6
:103a8000640370f890079f12320e90079812320567
:103a9000e8497012123ba6e594a2e24003023ba063
:103aa000759400023ba0888289831234cc90079fd2
:103ab000eaf0a3ebf088828983a3a312302e8882d8
:103ac0008983a3a3a3a3e02521faa3e03522fbea7f
:103ad00024fdfeeb34ffff88828983a3a3a3a3a365
:103ae000a3a3a3e0240460121460051460078047b8
:103af0001235a180521236ce804de521c39523e5c3
:103b0000229524c39400a2d265d0335025e5232406
:103b100001f521e5243400f522c3e5219ee5229f2d
:103b2000400ae5212401fee5223400ff9007271218
:103b30003a01121bab80109007c9e0a2e0500512b9
:103b4000376580031237c5aa21ab227930121dd9ff
:103b5000eefaeffb7940121dd97954121de5e521eb
:103b6000c39523f8e5229524f9c3e89401e994006c
:103b7000a2d265d033500c121bbde5e170fc75e19b
:103b800021801d9006a7e0a2e04012aa21ab2212dc
:103b90001dd39007df1221c5123ba68003121bbd67
:103ba000121c9b022ea2e5a8f8c2af90080ae0c240
:103bb000e0f0753400e8a2e7a2e792af220000002f
:103bc000853487c2af22c0e0c0d075d010c092c08b
:103bd00082c083c0f074fc1223895392fe90080bbc
:103be000e0601c121a7f9006a7e054117008e5c629
:103bf00054384487f5c690080be4f0c2c78026c24b
:103c0000c7853282853383aa82ab83121bb7e964ee
:103c100001701290080b7401f08532828533831293
:103c200021b9121c8f753400740412239fd0f0d078
:103c300083d082d092d0d0d0e03275c3007420c33c
:103c40009afa744e9bfbeaf5a2ebf5a35392fe227f
:103c5000c02175c301e5a2f521e5a375c300f9e50f
:103c6000212420f8e9344ef9e8c39af8e99bf9e8f1
:103c7000f5a2e9f5a3d0215392fe22c082c083743d
:103c8000fc122389e5a8f8c2afe595853282853319
:103c9000835392fef0e596c0e074011223f2d0e067
:103ca000f0e597c0e074021223f2d0e0f0e8a2e75a
:103cb000a2e792af74031223f2e4f08532828533d7
:103cc000831221b9740412239fd083d08222000171
:103cd000000002000000b913000000010000000015
:103ce000e3130000000200000000f51300030003ce
:103cf00024000000d7130002000404000000dd13bc
:103d0000000000050000000025140000000600006f
:103d100000008b1400050007260000003d14000081
:103d2000000800000000c714000200098200000023
:103d30001f140007000a2a000000cd140007000b22
:103d40002a000000d3140000000c00000000d91469
:103d50000002000d2200000013140003000e2202d6
:103d600000001914000001000000000037140000da
:103d7000010100000000bb1400000102000000006f
:103d80002b14000301038400000049140002010405
:103d90000400000043140002010504000000311477
:103da0000001010602000000e9130003010784007e
:103db0000000ef1300040200240800009714000420
:103dc000020144000000711300020202040000001e
:103dd00077130003020322080000651300020204a7
:103de000220000006b1300010300020000005313c7
:103df0000001030102000000c11400090302424453
:103e000004004d130001030302000000d113000160
:103e1000030402000000bf1300020305820000003b
:103e2000c5130001030602000000cb1300010307c5
:103e3000020000004713000203088200000017136d
:103e4000000804004244080059130006040142849b
:103e500000007d130006040242840000891300055f
:103e60000403420400008313000304044200000022
:103e70008f1300040405420800009b13000404068d
:103e800042080000b31300010407020000005f13a2
:103e90000003040842000000951300060409428450
:103ea0000000a1130002040a22000000a713000270
:103eb000040b82000000ad13000205002200000088
:103ec0000d1400010501020000009d14000105020f
:103ed00002000000a9140003050322020000a3143d
:103ee0000005050462000000af1400000505000095
:103ef00000008514000105060800000055140002aa
:103f00000600220000004f140002060122000000fb
:103f1000611400010602020000006714000f06038e
:103f20002a444400791400000604000000007f14b5
:103f300000080605444400006d1400030606220232
:103f40000000731400050607440200000114000578
:103f5000060844020000071400020609820000005f
:103f6000fb130007060a2a0000005b140003070089
:103f700022020000f71400060701260200000315c4
:103f80000003070222020000fd14000207032200c2
:103f90000000091500020704220000000f150003ad
:103fa0000705220200001515000307062202000083
:103fb0001b15000207072200000021150006070854
:103fc0002222220033150002070982000000391561
:103fd0000003070a2202000027150003070b22082e
:103fe00000002d150001070c0200000091140005cf
:103ff000070d224200003f150003080022020000c6
:10400000291300010801020000002f13000008021c
:1040100000000000351300000803000000003b13ff
:10402000000008040000000041130001080508001a
:104030000000231300010806020000001d13000108
:1040400009000200000045150004090106000000f7
:104050004b1500010902080000005115000009037a
:104060000000000057150000000000000000df14f1
:104070000000000100000000df14000600020a003a
:104080000000df140002000304000000df1400033e
:10409000000424000000df140005000522220200b5
:1040a000df140001000602000000df140005000715
:1040b00086000000df14000c000844442402df14d2
:1040c0000002000904000000df140002000a0400de
:1040d0000000df140002000b04000000df140000e9
:1040e000000c00000000df140003000d840000003d
:1040f000df140002000e04000000df1400000100c5
:1041000000000000df140000010100000000df14c7
:104110000000010200000000df140002010304009f
:104120000000df140003010484000000df1400001d
:10413000010500000000df14000201060400000079
:10414000df140000010700000000df14000202007d
:1041500004000000df140007020144840000df14a3
:104160000005020244080000df1400000203000002
:104170000000df140000020400000000df14000350
:10418000030042000000df140002030132000000bf
:10419000df140003030242000000df1400030303e6
:1041a00042000000df140002030482000000df145c
:1041b0000003030542000000df1400030306420071
:1041c0000000df140001030702000000df140001fb
:1041d000030802000000df14000304004200000096
:1041e000df140003040142000000df140003040296
:1041f00042000000df140003040342000000df144b
:104200000003040442000000df1400030405420020
:104210000000df140003040642000000df14000267
:10422000040704000000df1400030408420000003b
:10423000df140003040942000000df140003040a35
:1042400042000000df140003040b42000000df14f2
:104250000003050042000000df140000050100001b
:104260000000df140002050204000000df1400005b
:10427000050300000000df14000205040400000034
:10428000df140001050502000000df140000050630
:1042900000000000df140000060000000000df1432
:1042a0000002060104000000df1400020602040000
:1042b0000000df140003060324000000df140002e6
:1042c000060404000000df140003060524000000bb
:1042d000df140002060604000000df1400020607d7
:1042e00004000000df140002060804000000df14d0
:1042f0000002060904000000df140002060a0400a0
:104300000000df140002070004000000df140002b8
:10431000070104000000df1400020702040000008f
:10432000df140002070304000000df14000207048a
:1043300004000000df140002070504000000df1481
:104340000002070604000000df140004070724022f
:104350000000df140002070804000000df1400045e
:10436000070924080000df140003070a8400000086
:10437000df140001070b02000000df140000070c2f
:1043800000000000df140002070d04000000df142d
:104390000000080000000000df1400000801000019
:1043a0000000df140002080204000000df14000017
:1043b000080300000000df140001080408000000ea
:1043c000df140001080508000000df1400000806e3
:1043d00000000000df140000090000000000df14ee
:1043e0000002090104000000df14000209020400b9
:1043f0000000df140002090304000000df14800c39
:10440000000044442402df14800100010800000081
:10441000df148002000222000000df14800200038b
:1044200022000000df148004000444000000df14b8
:104430008000000500000000df1480020006040078
:104440000000df148003010084000000df148007f7
:10445000020022440800df1480060201422400000a
:10446000df148003020224000000df148010030028
:10447000222a4424df148006030122440000df14b2
:104480008002030282000000df1480020303820026
:104490000000df148003030442000000df148003e7
:1044a000040042000000df14800504014204000003
:1044b000df148006040242840000df148007040336
:1044c00042240800df148004040442080000df14c2
:1044d0008005040542820000df1480020406820089
:1044e0000000df148003050022080000df148003b1
:1044f000050142000000df14800505026200000093
:10450000df148001050302000000df1480040504ad
:1045100022220000df14800b0600232a8200df1411
:104520008002060122000000df1480070700262217
:104530000000df148001070102000000df14800387
:10454000070252000000df1480040900060000008a
:10455000df14000000000000000000008d080fab19
:104560000808bb0805c50809d7080cef0807fd08af
:104570000b13090e2f09073d090474f01224087467
:10458000f0122389e5c7f52875c703752110752238
:104590000078211226507c157d0774021223f2aa9e
:1045a00082ab83121e69740212239f782112265057
:1045b0007c007d007a157b07121e6f740212239f08
:1045c0007521008058852182a882e875f075a4facb
:1045d000abf09006a31247152474f582eb127451c8
:1045e000a2e050377f008f82ac82e875f03ba4fade
:1045f000abf090070b1247152cfaeb3400fbea24c2
:104600001af582eb127451fa74152cf582740712a4
:1046100074514af00fefc3941040cb05219006a2cd
:10462000e0f8e521c398409d752100852182a8828c
:10463000741528f5827407127451fa853282853315
:1046400083e58228f582e5831274516af00521e53d
:1046500021c3941040d5752100852182ae827f0050
:10466000853282853383e5822ef582e58312623db1
:10467000a3a3a3a3e0f8853282853383e5822ef5d8
:1046800082e58312745148f52260768f27e522a2d5
:10469000e0505b7523018f24e5277823122376a849
:1046a0002374152ef5827407127451586004790131
:1046b00080027900741d2ef58274071274515860bf
:1046c00004e9d2e1f98e238f247403782312237630
:1046d000852725e5232525fae5243400fb74a02a47
:1046e000f58274f73bf583e0fa7b0012161105277b
:1046f000e522c313f522e527c394085004e5227090
:104700008c0521e521c3940850030246598528c72a
:104710007410024cc512471922e02afaa3e03bfbb1
:10472000ea2274f6122408e975f03ba4faabf01201
:10473000176190070b126e7ce5c7ff75c70390f7f2
:104740009e125ec6e4c39af521741f9bf522782160
:104750001226507c007d00121e6f740212239f8f60
:10476000c77c9d7d097aa57b06121a4979087c0dc4
:104770007d077a007b00121c71e96408601b7521bb
:104780000875220078211226507c007d007a0d7b6e
:1047900007121e6f740212239f024f5874f01224e6
:1047a0000874fe1223b912263c8a278b28126a67e6
:1047b0000592a3858221858322125ec6ea4b60158d
:1047c0008e828f83a3a3a3858223858324c3e09a4b
:1047d000a3e09b500879011218f90248ca0592908b
:1047e00009a11226637b070592126a55121e0374f3
:1047f0000412239f8e828f83a3a3a3a3a385822564
:104800008583268e828f83e014604a14606414606e
:104810002c14600d1470030248b024fe607d024821
:10482000ca85238485248505921226678521828581
:10483000228305921248e71217b50248c378251261
:10484000265085238485248505921226671248d434
:104850001217a98016782512265085238485248571
:1048600005921226671248d412177f740412239ff0
:10487000805f7825122650ee2417f584ef127734e6
:10488000059212266785238485248512266712489f
:10489000d412176d740612239f8036ee2417f5820a
:1048a000ef127451f523a3e0f524e52345247008a5
:1048b0001248e11217af801978231226501248e1ee
:1048c000121785740212239f8007aa27ab28121c97
:1048d00029026f26ee2415f582ef127e030592e081
:1048e000f9852182852283126389aa27ab28227445
:1048f000f612240874fe1223b912263ceafeebffde
:104900008921126a53121dfd124f44242af582e5b3
:104910008512745160220592e024fd600c24fc7025
:1049200014740765217011800c740a652160067487
:104930000165217003752100e4439201f00592f0b6
:104940009006a1e0f522ac21eefaeffbe0f912159a
:10495000db9006a1e065226005a922121839024ffa
:104960004a74f6122408e9ff8c218d22740a12235e
:10497000f2e0fd9006a1e0fe7821122650effc90b7
:1049800006a1e0f912158d740212239f9006a1e092
:104990006e6005eef9121839024f5874f2122408ad
:1049a00074fe1223b912263c8a258b26124a411224
:1049b0001dfd9006a1e0ff858482858583a3858205
:1049c000238583247821122650eefd7c04852382e2
:1049d000852483124ad912158d740212239f9006e2
:1049e000a1e06f6005eff9121839e5842417f8e5a6
:1049f000853400f98e2188828983e02521f0a3e0a7
:104a00003400f074166e701788828983c3e09416a0
:104a1000a3e094004009aa25ab261218f380197967
:104a200000852382852483125ec61218f9e405925c
:104a3000f0aa25ab26121c298532828533830277a2
:104a4000168c218d22e9fe12603a7b079006a1e0c8
:104a5000fa79012274f412240874fe1223b9122682
:104a60003c8a238b24124a41121dfd0592e0f87402
:104a70000768700feef9ac21ad22aa23ab241219fe
:104a800005804d740a6805929006a1700fe0ffee54
:104a9000fcaa21ab22e0f9121593801de0ff7821da
:104aa000122650eefd7c00858482858583a3124a00
:104ab000d912158d740212239f9006a1e06f600534
:104ac000eff9121839e40592f0aa23ab24121c293d
:104ad000853282853383026818127e6e9006a1e0cb
:104ae000f92274f012240874fe1223b912263c74c1
:104af000fe1223898a278b288a828b83a3a3a3a3f0
:104b0000a3a3a3a3a3858225858326126a53121d1e
:104b1000fd852782852883a3a3e024faf523124e7e
:104b2000d38525848526850592a3853282853383a6
:104b30000592124eb07e00804b9006a1e0ffe58406
:104b40002402f521e5853400f522782112265074df
:104b5000fe29fd7c03858482858583124ad912153e
:104b60008d740212239f9006a1e06f6005eff91289
:104b70001839852582852683e0f5212efee58425da
:104b800021127730852582852683e0f9eec39523af
:104b900040a78921e523c39521124ea1124ee012b0
:104ba00018f3026f2174f012240874fe1223b91254
:104bb000263c74fe1223898a238b24126a48121d14
:104bc000fd852382852483a3a3e024faf5221260c5
:104bd00036858427858528e527242af582e528124d
:104be0006a447401f0126eca640170047e0280028d
:104bf0007e107521008010e06f6005eff912183902
:104c000074022e2521f521e521c39522505a539295
:104c1000fe9006a1e0ffa8218532828533831269c8
:104c200071127734eef5257825122654e584240395
:104c3000fce5853400fd124ca905929006a1e0f92f
:104c40001215a5740112239fe99006a170a9e06fc7
:104c50006005eff9121839852782852883e4f0aac8
:104c600023ab24121c29803e852221e52124fef855
:104c7000e434fff98e21e8c39521f8e99400f98521
:104c800032828533835392fe1268ab2401f8a3e08d
:104c90003400f98527828528830592a312637aaab6
:104ca00023ab241218f3026f210592a3e0faa3e0cc
:104cb000fb22740212239f8532828533835392fe36
:104cc000122644740212239f7f080224e074f0121b
:104cd000240874fe1223b912263c74fe1223898a1a
:104ce000278b28126a48121dfd852782852883a3f9
:104cf000a3e024fbf521125a53059290070b125e94
:104d0000a6858225858326e525242af582e52612b7
:104d10005aac7f00800de06e6005eef91218397410
:104d2000042fffefc39521505feff8853284853360
:104d300085124dbe126a44858284858385059290d2
:104d400006a1e0fe7522027822122654e5252417da
:104d5000f523e5263400f5247823122650124ebca4
:104d600012159f740312239fe99006a170a8e06eac
:104d70006005eef9121839852582852683e4f0aaac
:104d800027ab28121c298033a821853282853383e2
:104d9000e028f8a3e0126e8524fef582e934fff5e1
:104da00083e02401f8a3e03400f985258285268379
:104db000a312637aaa27ab281218f3026f21059277
:104dc000e028f582a3e02274f012240874fe122376
:104dd000b912263c74fe1223898a278b288a828b7b
:104de00083a3a3a3a3a3a3a3a3a38582258583262b
:104df0008a828b83a3a3e024faf521126a53121d41
:104e0000fd124ed3853282853383124eb07f0080ef
:104e100012e06e6005eef912183985258285268329
:104e2000e02fff852582852683e0f8efc39521508a
:104e30005b8f23e5252523fae5263400fb8a828b48
:104e400083a38582848583859006a1e0fe74fc2877
:104e5000f5227822122654ea2405f523eb3400f5d6
:104e6000247823122650124ebc12159f740312236d
:104e70009fe99006a1709ae06e6005eef91218396c
:104e80001274bfaa27ab28121c2980128823e5219f
:104e9000c39523124ea1a3a3124ee01218f3026f82
:104ea00021f895e0f9e52528f582e52639f58322f4
:104eb000127dca242a127e007401f0228584828524
:104ec0008583a3a3125eaffaa3e0fb05929006a12f
:104ed000e0f9221274a98532828533831275d122ba
:104ee000a3e02401f8a3e0126a5d12749c1275d04d
:104ef000aa27ab282274f612240874fe1223b912d2
:104f0000263c121839e970047a86801c124f44241a
:104f1000161277300592e0a2e040047a81800912ef
:104f20001c23ea4b70067a827b01800d0592e0c259
:104f3000e0f01217c17a007b0085328285338353fb
:104f400092fe800c12603ae584228532828533839a
:104f5000122644740212239f7f020224e074f2128c
:104f6000240874fe1223b912263ceafeebff8c25be
:104f70008d26121839e970047a8680121252d06098
:104f8000047a818009121c23ea4b70067a827b0125
:104f9000803074101223f2e0f8c394145004882275
:104fa0008003752214852523852624782312265014
:104fb000a922eefceffd1217a3740212239f7a00c0
:104fc0007b0002770d74f012240874fe1223b912cc
:104fd000263c8a278b28ecff121839e970047a8660
:104fe00080251252d060047a81801cefa2e0400537
:104ff000c3940450047a80800e121c238a258b26c9
:10500000ea452670067a827b018034efc3941650fd
:1050100004effe80027e16740a12515e1226637b34
:10502000070592126a55121e03740412239feef9ab
:10503000ac27ad28aa25ab261217977a007b000271
:105040004cb774f212240874fe1223b912263c7471
:10505000fe1223898a238b24ecfeedff74121223a7
:10506000f2e0f525a3e0f526121839e970047a86f6
:10507000801d1252d060047a818014e5234524708b
:10508000047a80800a121c23127e2370067a827ba7
:1050900001805d74141223f2e0f8c3941250048866
:1050a00021800375211274080592f0a3e523f0a373
:1050b000e524f09009a11226637b070592126a5538
:1050c000121e03740412239f78251226508e258ffa
:1050d000267825122650a921ac23ad24740412236e
:1050e000f2125ec612178b740412239f7a007b00a3
:1050f000740212239f02770d74f412240874fe12b6
:1051000023b912263c8a22121839e970047a868063
:105110001a1252d060047a818011121c238a238bc8
:1051200024ae23af24ee4f70067a827b01802c746c
:105130000912515e1226637b070592126a55121ef0
:1051400003740412239fe522600479018002790030
:10515000eefaeffb1217917a007b0002680f0592be
:10516000f0a3e4f0a3f09009a12274f012240874d3
:10517000fe1223b912263ceafeebff8c278d281283
:105180001839e970047a86801f1252d060047a813f
:105190008016ee4f70047a80800e121c238a258bb5
:1051a00026ea452670067a827b0180547412122307
:1051b000f2e0f8c39414500488218003752114741c
:1051c000060592f0a3eef0a3eff09009a11226637a
:1051d0007b070592126a55121e03740412239f85e1
:1051e00027238528247823122650a921eefceffde1
:1051f000aa25ab2612179d740212239f7a007b000a
:10520000024cb774f412240874fe1223b912263c1f
:10521000eafeebff121839e970047a86801a1252fe
:10522000d060047a818011ee4f70047a8080091278
:105230001c23ea4b70067a827b01802a7407125283
:10524000cbeef0a3eff0858482858583a3a3a3ee44
:10525000f0a3eff0e5842417f582e585127db41202
:1052600018f37a007b0002680f74f412240874fead
:105270001223b912263ceafeebff121839e970043a
:105280007a86801a1252d060047a818011ee4f70b3
:10529000047a808009121c23ea4b70067a827b0113
:1052a000802674051252cba3a3a882a983eef0a393
:1052b000eff0888289831263920592a3e8f0a3e954
:1052c000f01218f37a007b0002680f125442a322f6
:1052d00012603a0592e02274f212240874fe12233e
:1052e000b912263c8a218b22ecfeedff121839e917
:1052f00070047a8680121252d060047a818009127a
:105300001c23ea4b70067a827b01801d74041252c2
:10531000cbe521f0a3e522f00592a3a3a3eef0a331
:10532000eff01218f37a007b0002770d74f012246c
:105330000874fe1223b912263c8a278b288c258def
:1053400026121839e970047a86802e1252d0600431
:105350007a81802574141223f20592e0ff74026fa3
:10536000600974106f60047a80800e121c238a23f7
:105370008b24ea452470067a827b0180347403050d
:1053800092f08f2175220005927821122650741414
:105390001223f2125467121e69740212239f1253d1
:1053a000b485848285858312544e1218f37a007b6b
:1053b00000024cb7e5842415f582e585127e03efe3
:1053c000f02274f012240874fe1223b912263c8acb
:1053d000278b288c258d26121839e970047a86804f
:1053e0002e1252d060047a81802574141223f205a3
:1053f00092e0ff74026f600974106f60047a80801d
:105400000e121c238a238b24ea452470067a827ba1
:1054100001802c8f217522007821122650741412dd
:1054200023f2125467121e69740212239f1253b49e
:10543000740112544212544e1218f37a007b000287
:105440004cb70592f0858482858583059222a3e579
:1054500027f0a3e528f00592a3a3a3e525f0a3e593
:1054600026f0aa23ab2422126389e5842405fae5f9
:10547000853400fb2274f012240874fe1223b91242
:10548000263c74fe122389126e768c278d287414a4
:105490001223f2e0fea3e0ff121839e970047a86c5
:1054a000802a1252d060047a81802174181223f26b
:1054b0000592e0f522c3941140047a80800e121cfc
:1054c000238a258b26ea452670067a827b0180692d
:1054d000e5842417f582e585126a44eef0a3eff027
:1054e00074020592f0e5842415f582e585126a447c
:1054f000e5220592f0f523752400782312265074d6
:10550000181223f2125467121e69740212239f8527
:105510003282853383126392858482858583a312c8
:10552000637a0592a3a3a3e527f0a3e528f0aa25b3
:10553000ab261218f37a007b00024cb274f11224ed
:105540000874fe1223b912263c74fc1223897402db
:105550001223f2126e7ce5c7f52775c70374021299
:1055600023f2127dd9853284853385e5820592f058
:10557000a3e583f08532828533830592126572f844
:1055800074021223f21256c9059290f79de0f52598
:10559000ff741dc39af5268e228e2180080522ef06
:1055a000c313ff052190f79ce0fce521c39c504408
:1055b000eec39526503e1256db70e8efa2e050dfb6
:1055c000a3a3a3a3a3e0640270d3752302752400f0
:1055d000782312265012637e8e23e5842523126ed3
:1055e000822402fae93400fb121e69740212239f1e
:1055f0000e0e80abee6013858482858583a3ef60f9
:10560000047402800274031256b2e522700302563b
:10561000aa8532828533835392fe126ed0f8741db0
:10562000c398fa95e0fbc3ea9410eb9400a2d2650c
:10563000d033407674021223f21256c9af258e2160
:105640008006efc313ff0521e521c39c5042e526e8
:10565000603e5392fe1256db70ecefa2e050e3a3e3
:10566000a3a3a3a3e0641070d97523108e2478231c
:1056700012265012637ee5842402fae5853400fb8d
:10568000121e69740212239f7e1074ff2522600e81
:105690008584828585835392fea374068009858460
:1056a00082858583a374071256b28527c7740402c6
:1056b00075e0f074012ef80592f00885328285338a
:1056c000830592126ed428f022059212697134007b
:1056d000f5850592a3a3a3a37e002290f7961263fb
:1056e00096e52175f006a4faabf0e82afae93bfb4f
:1056f0008a828b83e02274f012240874fe1223b98c
:1057000012263c74f9122389853282853383ecf0aa
:10571000a3edf08a278b28e9fe7522001274bf8a58
:10572000828b830592a3a3a3a385822385832474fc
:10573000026e600caa23ab24121e39e960027e02bd
:1057400074191223f212639274191223f212637afb
:1057500074191223f212695274100592f074026ed9
:1057600060030257e78523828524830592126392a2
:10577000e8700374286970537f0074191223f212c1
:105780006952740a0592f0e5c7c0e074041223f26e
:10579000d0e00592f075c7031274bf059290f79c94
:1057a000e0f526f582ac828527828528831275d79d
:1057b0005003025921852782852883a3a3125ec640
:1057c000c3ec9ae49b50258c2580247401687003f7
:1057d00074286970047f0180a174036870037428c1
:1057e0006970047f028093790002592eeaf525e85a
:1057f00014f521801274021223f2127dd6e521f0f5
:10580000a3e4f015210521e521c3952540030259a4
:105810001212638f74051223f212637a852182a813
:1058200082e875f006a4faabf074051223fc059229
:10583000e02af582a3e03bf583ac82ad830592e0dc
:105840006f70c2852282aa82853284853385059253
:10585000e02a12593374021223fce5820592f0a368
:10586000e58312742ae02404f527126ecaf523603a
:1058700009e52765236003025912852723ea12747c
:10588000374003025912e527f0eaf522e82401081f
:10589000e43400f974021223f20592126952e80509
:1058a00092f0a3e912742a1261221226508c828d82
:1058b00083a3a3a3127dd01223f2127465121e6972
:1058c000740212239f8029e52175f006a4f8a9f03f
:1058d00074051223f25392fe126569f870030257a1
:1058e000f574016870030257f5e86f70030257f50d
:1058f0000521e521c3952640cee5266521600302fa
:1059000057f574021223f2127dd674fff0a3f00251
:105910005805e522600b74191223f25392fe12749b
:10592000c574041223f25392fee0f5c7a92274074e
:10593000024cb4f582a3e0127e030592a32274f711
:1059400012240874fe1223b912263c124a47121d73
:10595000fd0592e0f8740668600a740868600574d2
:105960000968701ce4125aa37c00124ca90592e04d
:10597000f91215db9006a1e06e6005eef9121839f8
:1059800002692674f212240874fe1223b912263c0e
:105990008a258b26ecffedfeec24010ce43400fd9f
:1059a0001217738a848b8574101223f2126385ecac
:1059b0004d701deff91219dde9fec3941540027e0a
:1059c000147d00eefceff9aa84ab851219f5801a5c
:1059d000eec3941540027e148e21752200782112a8
:1059e0002650121e69740212239feef9aa25ab26d7
:1059f000121779024a3885328285338302692f74ff
:105a0000f712240874fe1223b912263c8a848b856f
:105a1000125a4160237b08126a55121dfd125a4129
:105a2000fae4f09006a1e0fef91215999006a1e0c3
:105a30006e6005eef9121839aa84ab85121c298014
:105a4000b5125a5390070b1268a62419f582e91271
:105a5000625622125a5722125a5b229006a1e07512
:105a6000f03ba4f8a9f02274f712240874fe122364
:105a7000b912263c1252d0640b6025e5842419f536
:105a800082e585125aac126036740b0592125aa345
:105a9000f91215d59006a1e06e6005eef9121839dd
:105aa000026926f005929006a1e0fe22127e0374a0
:105ab000010592f02274f112240874fe1223b91227
:105ac000263c74fc12238974021223f2126e7c8924
:105ad000228c27e975f006a4f8a9f090f7961272c7
:105ae00050f5850592a3a3a3e0f582a3e0f5838595
:105af0008284858385a3e0f80592e0f52675210070
:105b0000740758f97401b900028004c333d9fcf555
:105b100025e8131313541ffe804c05929009a1121f
:105b200026637b080592126a55121e037404122321
:105b30009f74012522c0e01268252419126a41d001
:105b4000e0f074021223fc0592122667ad27ac2206
:105b5000791d74021223f20592125ec61219837423
:105b60000212239f05219006a2e0f8e521c3984088
:105b700003025c10852182a882e875f075a4faab57
:105b8000f09006a3125c1ee5842474f582e585126c
:105b90007451a2e050cee89006a1f090069fe584f3
:105ba000f0a3e585f0e526a2e45031e8125c2cf87c
:105bb000eb39f9e8241a12744e5525601f121c2384
:105bc000ea4b604c74021223fc0592122667ad2743
:105bd000ac22791b121983740212239fe526a2e5d9
:105be00050829006a1e0125c2cfaeb39fbea2422e9
:105bf000f582eb12745155257003025b64125a440e
:105c00006003025b64121c23127e236003025b1a92
:105c1000740412239f8532828533830275ec125cf3
:105c20002222e02af584a3e03bf5852275f03ba40f
:105c3000f8a9f090070be02efaa3e03400fbea2865
:105c40002274f012240874fe1223b912263c892112
:105c50008c278d2875220074121223f2e0fea3e037
:105c6000ff8e828f83e0f525e5c7f52475c703ea2b
:105c700014f52690f79ce0f8e526c39840097522b4
:105c8000018e828f838023e52612639c7009852410
:105c9000c77a887b018049a9261219dde98e828f97
:105ca00083f0c395215007752207e4f08022a821d4
:105cb000e0c398f0f8c39525500488238003852518
:105cc00023e523f0ad21fca926aa27ab281219f55c
:105cd0008524c7e5226005fa7b0480047a007b00f6
:105ce000024cb774f612240874fe1223b912263c33
:105cf000eaf8ecfaedfb752100e5c7fe75c703e88d
:105d000014fd740c1223f212639290f79ce0fcede8
:105d1000c39c400b75210188828983e4f0801eedcd
:105d2000126ea10592e0fca2e75004741080027488
:105d300002888289830592f0ecf9121e458ec7e530
:105d400021a2e05005fa7b0480047a007b00024f18
:105d50004a74f012240874fe1223b912263c74fe11
:105d6000122389853282853383ecf0a3edf08925f7
:105d70007e007f00e5c7f52675c703ea14f522907b
:105d8000f79ce0c395225003025e99e52275f00668
:105d9000a4f8a9f0059290f796125ea68582278551
:105da00083280592a3a3e0fc24fa600a1460072468
:105db000fb6003025e9774141223f2e0f521740c69
:105dc0006c7003025e7f8527848528850592a3a3d6
:105dd000a3e0f582a3e0f583852584aa84858284e7
:105de000858385a3a3a3a3e0f8852123ea2523f5d2
:105df00023e43400f524e89523e49524c365d033e7
:105e000050057e0d025e9a0592a3a3858284858348
:105e100085852182a882790074066c88238924787c
:105e200023701b12265074021223f2125eaafaa3e8
:105e3000e03400fb121e69740212239f8031122687
:105e40005074021223f2125eaa125933aa82ab8353
:105e5000121e69740212239fe5212525c0e08527c3
:105e600082852883a3a3a3126edfd0e00592f0857c
:105e700027828528835392fea3a3e0640c700b85d0
:105e80003282853383125ec680047a007b00ac21a7
:105e9000a92212199580050e0e0e7f048526c7eee5
